:020000040800F2
:1000000000100020ED190008451900084B190008E0
:1000100000000000000000000000000000000000E0
:10002000000000000000000000000000511900085E
:1000300000000000000000005B19000865190008BE
:100040003D1A0008000000003D1A00083D1A000893
:100050003D1A00083D1A00083D1A00083D1A000824
:10006000000000003D1A00083D1A00083D1A000873
:100070003D1A00083D1A00083D1A00080000000063
:100080003D1A000800000000000000003D1A0008B2
:10009000000000003D1A00083D1A00083D1A000843
:1000A000000000003D1A0008000000003D1A000892
:1000B0000000000000000000000000000000000040
:1000C00010B5064C2378002B07D1054B002B02D02E
:1000D000044800E000BF0123237010BD7800002019
:1000E0000000000004400008044B10B5002B03D0B2
:1000F0000349044800E000BF10BDC04600000000F6
:100100007C0000200440000803B471464908400008
:100110004900095E49008E4403BC70470022430831
:100120008B4274D303098B425FD3030A8B4244D3BF
:10013000030B8B4228D3030C8B420DD3FF22090201
:1001400012BA030C8B4202D31212090265D0030BC0
:100150008B4219D300E0090AC30B8B4201D3CB03B6
:10016000C01A5241830B8B4201D38B03C01A5241F8
:10017000430B8B4201D34B03C01A5241030B8B42FA
:1001800001D30B03C01A5241C30A8B4201D3CB02E5
:10019000C01A5241830A8B4201D38B02C01A5241CA
:1001A000430A8B4201D34B02C01A5241030A8B42CD
:1001B00001D30B02C01A5241CDD2C3098B4201D3E5
:1001C000CB01C01A524183098B4201D38B01C01A63
:1001D000524143098B4201D34B01C01A52410309DA
:1001E0008B4201D30B01C01A5241C3088B4201D389
:1001F000CB00C01A524183088B4201D38B00C01A36
:10020000524143088B4201D34B00C01A5241411A5C
:1002100000D20146524110467047FFE701B5002069
:1002200000F006F802BDC0460029F7D076E7704717
:100230007047C04680B582B000AF786002E07B684E
:10024000013B7B607B68002BF9D1C046C046BD46B0
:1002500002B080BD80B500AFFA239B001800FFF705
:10026000E9FFC046BD4680BD80B582B000AF020048
:10027000FB1D1A70574B02229A62564B08229A6253
:10028000544B10229A62534B20229A62514B4022C7
:100290009A62504B80229A62FFF7DCFF4D4B5A69FD
:1002A0004C4B08210A435A61FB1D1B781022134056
:1002B00003D0484B10229A6103E0464B8022520340
:1002C0009A61FB1D1B782022134003D0414B202252
:1002D0009A6103E03F4B802292039A61FB1D1B78D9
:1002E0004022134003D03B4B40229A6103E0394B3C
:1002F0008022D2039A61FB1D1B785BB2002B03DACC
:10030000344B80229A6103E0324B802212049A61BE
:10031000FFF7A0FF2F4B08229A622E4B10229A6201
:100320002C4B20229A622B4B40229A62294B80222E
:100330009A62FFF78FFF274B5A69264B08210A4321
:100340005A61FB1D1B780122134003D0214B102260
:100350009A6103E01F4B802252039A61FB1D1B78B8
:100360000222134003D01B4B20229A6103E0194B59
:10037000802292039A61FB1D1B780422134003D054
:10038000144B40229A6103E0124B8022D2039A61FF
:10039000FB1D1B780822134003D00E4B80229A616C
:1003A00003E00C4B802212049A61FFF753FF094BC4
:1003B00008229A62074B10229A62064B20229A6208
:1003C000044B40229A62034B80229A62C046BD468B
:1003D00002B080BD0004004880B582B000AF0200CA
:1003E000FB1D1A70594B5A69584B02210A435A6136
:1003F000564B08229A62554B10229A62534B202288
:100400009A62524B40229A62504B80229A62FFF7C6
:1004100021FF4E4B5A694D4B08210A435A61FB1D7F
:100420001B781022134003D0484B10229A6103E03E
:10043000464B802252039A61FB1D1B7820221340F9
:1004400003D0424B20229A6103E0404B802292036A
:100450009A61FB1D1B784022134003D03B4B402286
:100460009A6103E0394B8022D2039A61FB1D1B780D
:100470005BB2002B03DA354B80229A6103E0334BE9
:10048000802212049A61FFF7E5FE304B08229A623F
:100490002E4B10229A622D4B20229A622B4B402227
:1004A0009A622A4B80229A62FFF7D4FE274B5A6940
:1004B000264B08210A435A61FB1D1B780122134079
:1004C00003D0224B10229A6103E0204B802252037A
:1004D0009A61FB1D1B780222134003D01B4B202284
:1004E0009A6103E0194B802292039A61FB1D1B78ED
:1004F0000422134003D0154B40229A6103E0134BB2
:100500008022D2039A61FB1D1B780822134003D07E
:100510000E4B80229A6103E00C4B802212049A61F8
:10052000FFF798FE094B08229A62084B10229A6244
:10053000064B20229A62054B40229A62034B80228E
:100540009A62C046BD4602B080BDC0460004004865
:1005500080B582B000AF786008E0FFF77BFE7B6873
:100560005A1C7A601B781800FFF736FF7B681B78EF
:10057000002BF2D1FFF76EFEC046BD4602B080BD33
:1005800090B583B000AF040008001100FB1D221CD1
:100590001A70BB1D021C1A707B1D0A1C1A70FA20EF
:1005A00001F0B2FA0220FFF75FFE322001F0ACFA50
:1005B000FA1DBB1D12781B781343DAB27B1D1B7822
:1005C0001343DBB220221343DBB21800FFF74CFECB
:1005D000322001F099FA0620FFF746FE322001F0A2
:1005E00093FA0E20FFF740FE322001F08DFA0C2026
:1005F000FFF73AFE322001F087FA0120FFF734FEC0
:10060000642001F081FAC046BD4603B090BD80B5BC
:1006100082B000AF0200FB1D1A70BB1D0A1C1A70CD
:10062000FB1D1B78012B07D1BB1D1B787F33DBB271
:100630001800FFF719FE0AE0FB1D1B78022B06D1FC
:10064000BB1D1B78413BDBB21800FFF70DFEC04617
:10065000BD4602B080BD80B582B000AF3A60FB1DE0
:10066000021C1A70BB1D0A1C1A70BB1D1A78FB1DD8
:100670001B7811001800FFF7CAFF3B681800FFF74E
:1006800067FFC046BD4602B080BD80B500AF012007
:10069000FFF7EAFD022001F037FAC046BD4680BDF3
:1006A00080B500AF802319019023DB0501221800DB
:1006B00001F08FFC642001F027FA802319019023B8
:1006C000DB050022180001F084FCC046BD4680BD59
:1006D00080B584B000AF0200FB1D1A700F23FB1819
:1006E00000221A701BE0802319019023DB050122F0
:1006F000180001F06EFC642001F006FA8023190155
:100700009023DB050022180001F063FC642001F057
:10071000FBF90F217B181A787B1801321A700F230E
:10072000FA18FB1D12781B789A42DCD3C046C046EB
:10073000BD4604B080BD000090B583B000AF8023FB
:100740001A029023DB051100180001F025FC031E9E
:1007500040D1DF4B1B78092B06D0DD4B1B780133D2
:10076000DAB2DB4B1A7002E0D94B00221A70D94B77
:100770001B781A0013005B019B1A9B009B18DB007F
:100780001A00D54B1B78190064234B43D218D04B69
:100790001B7819000B009B005B185B00D3181A0034
:1007A000CE4B1A60FFF771FFCD4B1A0001210120DB
:1007B000FFF751FFC94B1A68CA49CB4B180002F02A
:1007C000B7FFC94B1A0001210220FFF744FF642044
:1007D00001F09AF98023DA019023DB05110018005B
:1007E00001F0DAFB031E40D1BB4B1B78092B06D06E
:1007F000B94B1B780133DAB2B74B1A7002E0B64B33
:1008000000221A70B34B1B781A0013005B019B1A6D
:100810009B009B18DB001A00AF4B1B781900642368
:100820004B43D218AA4B1B7819000B009B005B1896
:100830005B00D3181A00A94B1A60FFF726FFA84BDC
:100840001A0001210120FFF706FFA44B1A68A549F1
:10085000A54B180002F06CFFA34B1A0001210220E7
:10086000FFF7F9FE642001F04FF980239A019023ED
:10087000DB051100180001F08FFB031E40D1954BE2
:100880001B78092B06D0934B1B780133DAB2914BBE
:100890001A7002E08F4B00221A708E4B1B781A00E0
:1008A00013005B019B1A9B009B18DB001A008A4B0C
:1008B0001B78190064234B43D218854B1B78190011
:1008C0000B009B005B185B00D3181A00834B1A6067
:1008D000FFF7DBFE824B1A0001210120FFF7BBFE70
:1008E0007E4B1A687F49804B180002F021FF7E4B37
:1008F0001A0001210220FFF7AEFE642001F004F986
:1009000080235A019023DB051100180001F044FBFD
:10091000031E00D0D7E0754B1900262000F02CFCF8
:1009200003001A00724B1A70704B180000F05CFD47
:1009300003001A006E4B1A706E4B6C4A11681960F6
:1009400012791A716A4B1B78002B00D094E0674B28
:10095000180000F010FFFC1D664B674A0221602062
:1009600000F098FE03002370644B1900022000F091
:1009700090FD03001A005E4B1A705D4B1B78002B34
:1009800000D0A0E0554B1B68DAB25C4B1A70534B99
:100990001B681B0ADAB2594B5A70504B1B681B0C70
:1009A000DAB2564B9A704D4B1B681B0EDAB2534BA2
:1009B000DA70524B1900022000F0A1FD03001A006A
:1009C0004B4B1A704A4B1B78002B2DD10220FFF79E
:1009D0007FFEFFF75AFE4A4B1A0001210120FFF764
:1009E0003AFE484B1A0001210220FFF734FEFA2399
:1009F000DB00180001F088F8FFF747FE424B1A00B1
:100A000001210120FFF727FE404B1A00012102209F
:100A1000FFF721FE3E4B00221A7000F000FF00F0AD
:100A200081FB00F088FB4EE00320FFF751FEFFF74B
:100A30002CFE384B1A0001210120FFF70CFEFA238F
:100A4000DB00180001F060F8FFF71FFE2E4B1A00C4
:100A500001210120FFF7FFFD2C4B1A00012102208C
:100A6000FFF7F9FD2A4B00221A7000F0D8FE00F0C3
:100A700059FB00F060FB26E00320FFF729FEFFF79B
:100A800004FE244B1A0001210120FFF7E4FDFA23A4
:100A9000DB00180001F038F8FFF7F7FD1A4B1A00D9
:100AA00001210120FFF7D7FD184B1A000121022078
:100AB000FFF7D1FD164B00221A7000F0B0FE00F0D7
:100AC00031FB00F038FBC046BD4603B090BDC046C8
:100AD00034010020360100203501002038010020BB
:100AE0001C40000828400008F80000200C010020ED
:100AF000080100201C01002000000020240100202B
:100B0000344000083C4000084840000850400008BD
:100B10003C0100205C40000890B587B000AF6E4BF0
:100B20001B7801225340DBB2002B00D1CFE06B4B8E
:100B30001900262000F020FB03001A00684B1A70F1
:100B4000664B180000F050FC03001A00644B1A704A
:100B5000644B624A1168196012791A71604B1B78F4
:100B6000002B00D0B3E05D4B180000F004FE17230B
:100B7000FC185C4B5C4A0221602000F08BFD0300F6
:100B800023705A4B1900022000F083FC03001A0066
:100B9000534B1A70524B1B78002B71D1FFF780FD1D
:100BA000524BDB783B61514B9B78FB604F4B5B7842
:100BB000BB604E4B1B787B607B68FF221A40BB6892
:100BC0001B021B041B0CD218FB681B041B021B0A14
:100BD000D3181A003B691B06D218454B1A60444BC8
:100BE0001B68444A934202D9414B424A1A60404B27
:100BF0001B68FA2291001800FFF790FA0300DAB29E
:100C00003D4B1A703A4B1B68FA2291001800FFF70F
:100C10000BFB0B0064211800FFF780FA0300DAB227
:100C2000364B1A70324B1B6864211800FFF7FCFA30
:100C30000B000A211800FFF771FA0300DAB2304BFB
:100C40001A70FFF722FD2F4B1A0001210120FFF738
:100C500002FD274B1A682C492C4B180002F068FD46
:100C60002A4B1A0001210220FFF7F5FC1A4B012242
:100C70001A7000F0D4FD00F055FA00F05CFA26E09E
:100C80000320FFF725FDFFF700FD214B1A0001218E
:100C90000120FFF7E0FCFA23DB00180000F034FF2E
:100CA000FFF7F3FC1B4B1A0001210120FFF7D3FCD7
:100CB000194B1A0001210220FFF7CDFC064B002240
:100CC0001A7000F0ACFD00F02DFA00F034FAC046C6
:100CD000BD4607B090BDC0463C0100200C0100207D
:100CE000080100201C010020000000202401002039
:100CF000380100200F2700003601002035010020B8
:100D0000340100201C40000868400008F800002062
:100D10005C400008484000085040000880B500AF23
:100D200000F08EFE00F038F800F0B0F800F070F837
:100D3000082200210020FFF723FC80235900902384
:100D4000DB050122180001F044F9642000F0DCFE0C
:100D500000F0F1F9372000F059F903001A000B4BAD
:100D60001A70FFF79DFCFFF790FC094B1A00012158
:100D70000120FFF770FC074B1A0001210220FFF74A
:100D80006AFCFFF7C9FEFFF7D7FCFAE7080100206D
:100D9000484000085040000890B591B000AF1024C2
:100DA0003B19180030231A00002102F0B9FC3B0067
:100DB000180010231A00002102F0B2FC3B19012296
:100DC0001A603B1901225A603B1900221A623B1932
:100DD000180001F01BF9031E01D000F0DBF83B0006
:100DE00007221A603B0001225A603B0000229A60F1
:100DF0003B000022DA603B000021180001F020FCDB
:100E0000031E01D000F0C6F8C046BD4611B090BD2B
:100E100080B500AF1B4B1C4A1A601A4B822252004D
:100E20005A60184B00229A60164BE022D200DA601A
:100E3000144B00221A61134B00225A61114B80227D
:100E400092009A610F4B1022DA610E4B00221A6257
:100E50000C4B00225A620B4B00229A62094B07226C
:100E6000DA62084B00221A63064B08225A63054BCC
:100E7000180001F00BFD031E01D000F08BF8C046F6
:100E8000BD4680BD940000200030014090B589B07F
:100E900000AF0C243B19180014231A00002102F0A3
:100EA0003FFC3A4B5A69394B8021C9030A435A61C6
:100EB000364B5A698023DB031340BB60BB68334B5E
:100EC0005A69324B802189020A435A612F4B5A6971
:100ED00080239B0213407B607B682C4B5A692B4B11
:100EE0008021C9020A435A61284B5A698023DB02D8
:100EF00013403B603B68912319019023DB050022DE
:100F0000180001F066F8224B0022FA21180001F0C7
:100F100060F83B19912212011A603B1901225A60B4
:100F20003B1900229A603B190022DA603A1990239B
:100F3000DB051100180000F0BFFE3B19FA221A6011
:100F40003B1901225A603B1900229A603B1900228A
:100F5000DA603B190E4A1900100000F0ADFE2100C6
:100F60007B18F02212021A607B1800225A607B184C
:100F700001229A607A189023DB051100180000F016
:100F80009BFEC046BD4609B090BDC0460010024061
:100F90000004004880B500AF72B6C046FEE700000E
:100FA00090B585B000AF0200FB1D1A70BB1D0A1C76
:100FB0001A70FB1D1B785B00DBB27E221340DAB295
:100FC0000F243B191A709023DB0500221021180012
:100FD00000F0FFFFFA235B0039190B48012201F0F2
:100FE0000DFDFA235B00B91D0748012201F006FD43
:100FF0009023DB0501221021180000F0EAFFC04613
:10100000BD4605B090BDC0469400002090B585B0A7
:1010100000AF0200FB1D1A70FB1D1B785B005BB26A
:101020007E2213405BB28022524213435BB2DAB29B
:101030000E243B191A709023DB05002210211800A2
:1010400000F0C7FFFA235B0039190C48012201F0B8
:10105000D5FCFA235B000F2439190848012201F05E
:101060002DFE9023DB0501221021180000F0B1FFB6
:101070003B191B781800BD4605B090BD94000020B8
:10108000B0B584B000AF0200FB1D1A70BB1D0A1C76
:101090001A700F257C19FB1D1B781800FFF7B6FF8F
:1010A000030023707A19BB1D12781B781343DAB240
:1010B000FB1D1B7811001800FFF772FFC046BD46EC
:1010C00004B0B0BDB0B584B000AF0200FB1D1A7013
:1010D000BB1D0A1C1A700F257C19FB1D1B781800FC
:1010E000FFF794FF03002370BB1D1B785BB2DB434B
:1010F0005BB27A19127852B213405BB2DAB2FB1DBE
:101100001B7811001800FFF74BFFC046BD4604B026
:10111000B0BD80B500AF03211420FFF7B1FFC0467A
:10112000BD4680BD80B500AF0F210120FFF738FF1D
:10113000C046BD4680BD80B500AFFFF7F3FF8021FC
:101140002A20FFF72DFFA9212B20FFF729FF0321DC
:101150002D20FFF725FFE8212C20FFF721FF40215C
:101160001520FFF71DFF3D211120FFF719FFFFF7A5
:10117000D0FFC046BD4680BDB0B586B002AF02000C
:101180003960FB1D1A7007210D20FFF709FF3B682E
:10119000FA1D12781A700F257C193A6839680823ED
:1011A000FB180093130001220C2000F014F8030038
:1011B00023707B191B78002B02D1BB68102B03D046
:1011C0000F23FB1802221A700F23FB181B7818003C
:1011D000BD4604B0B0BDB0B588B000AFB960110075
:1011E0007B600F243B19021C1A700E23FB180A1C8B
:1011F0001A701F23FB1802221A701E217B1800226E
:101200001A701D203B1800221A703B191B780C2BFA
:1012100008D00E2B0FD17B1812221A703B18102207
:101220001A7009E01E23FB1877221A701D23FB1881
:1012300030221A7000E0C0461E23FB181B78802263
:1012400052421343DBB219000220FFF7A9FE8021AE
:101250000420FFF737FF80210A20FFF711FF00214C
:101260000120FFF79DFE0023BB610AE0BA68BB695D
:10127000D3181B7819000920FFF792FEBB690133D0
:10128000BB610E23FB181B78BA699A42EED30F2478
:101290003B191B7819000120FFF782FE3B191B78D0
:1012A0000C2B03D180210D20FFF7EAFEFA23DB008F
:1012B000BB611C257C190420FFF7A8FE03002370E6
:1012C000BB69013BBB61BB69002B0DD07B191B784F
:1012D0000122134008D17B191D22BA181B781278FD
:1012E0001340DBB2002BE4D080210D20FFF7EAFE93
:1012F000BB69002B00D170E00620FFF787FE0300DA
:101300001A001B23134064D11F217B1800221A707E
:101310001C23FB181E22BA181B7812781340DBB26C
:101320001A000123134002D07B1801221A700F23E8
:10133000FB181B780C2B50D11C257C190A20FFF7B9
:1013400065FE030023700C20FFF760FE0300190008
:1013500017203B1807220A401A7001007B181B78DF
:10136000002B0AD07B191B78013BDA007B181B7815
:10137000D3181A003B6B1A6006E01C23FB181B787D
:10138000DB001A003B6B1A601C22BB181B78002B79
:1013900002D1BB1801221A701C22BB181B78102B1B
:1013A00002D9BB1810221A700023BB610AE07A68C8
:1013B000BB69D4180920FFF729FE03002370BB691D
:1013C0000133BB611C23FB181B78BA699A42EED328
:1013D00003E01F23FB1802221A701F23FB181B783F
:1013E0001800BD4608B0B0BDB0B586B002AF786099
:1013F0000D23FB1800221A7000210D20FFF7D0FDED
:101400007B6893221A707B68013320221A700F25A3
:101410007C197A6879680823FB180093130002226C
:101420000C20FFF7D8FE030023707B191B78002BDC
:1014300028D10E23FB1800221A7010E00E203B1852
:101440001B787A68D31819780D22BB18BA1812784D
:101450004A401A703B181A783B1801321A700E2253
:10146000BB181B78032BE9D9BB181B787A68D318F3
:101470001B780D22BA1812789A4203D00F23FB185A
:1014800002221A700F23FB181B781800BD4604B007
:10149000B0BDB0B586B002AF02003960FB1D1A7056
:1014A0003B6830221A703B680133FA1D12781A70BB
:1014B0003B689A1C3B680221180000F08FF80F254A
:1014C0007C193A6839680823FB180093130004223A
:1014D0000C20FFF780FE030023707B191B78002B84
:1014E00002D1BB68902B03D00F23FB1802221A7085
:1014F0000F23FB181B781800BD4604B0B0BDF0B533
:101500008DB002AF02003960FB1D1A700C257B19EB
:10151000A0221A707B19FA1D12785A707B199A1C36
:101520007B190221180000F059F82726BC197A19F6
:1015300079192023FB180093130004220C20FFF7D5
:101540004AFE03002370BB191B78002B02D0BB1985
:1015500002221A702723FB181B78002B37D1262371
:10156000FB1800221A700FE026203B181B783A68FF
:10157000D2183B181B7811780C22BA18D1543B189A
:101580001A783B1801321A702623FB181B780F2B90
:10159000EAD90C257B1910331A007B191021180089
:1015A00000F01CF82726BC197A1979192023FB189A
:1015B0000093130012220C20FFF70DFE030023708E
:1015C000BB191B78002B02D0BB1902221A702723EB
:1015D000FB181B781800BD460BB0F0BDB0B586B047
:1015E00000AFF8607A600B23FB180A1C1A70042104
:1015F0000520FFF767FD80210A20FFF741FD172333
:10160000FB1800221A700EE017243B191B78FA68A9
:10161000D3181B7819000920FFF7C2FC3B191A7870
:101620003B1901321A7017243A190B23FB18127850
:101630001B789A42E8D303210120FFF7B1FC3B1944
:10164000FF221A7016257C190520FFF7DFFC030026
:10165000237017217B181A787B18013A1A707B18AF
:101660001B78002B04D07B191B7804221340E9D08F
:101670002220FFF7CBFC03001A007B681A707B68FE
:101680005C1C2120FFF7C2FC03002370C046BD464E
:1016900006B0B0BDB0B58CB002AFBA607B600F24AD
:1016A0003B19021C1A700E203B180A1C1A701421D8
:1016B0007B183A1912781A707B183A1812785A70F7
:1016C0002623FB1800221A7010E026203B181B78F6
:1016D000BA68D2183B181B78023311781422BA1852
:1016E000D1543B181A783B1801321A702622BB18C5
:1016F0001B78052BE9D9BB1800221A7010E02620B0
:101700003B181B787A68D2183B181B78083311787D
:101710001422BA18D1543B181A783B1801321A70A7
:101720002623FB181B78032BE9D927257C191423C2
:10173000FA18F9182023FB18009313000C220E202E
:10174000FFF749FD030023707B191B78002B07D19D
:101750000820FFF75BFC03001A000823134003D1A5
:101760002723FB1802221A702723FB181B78180066
:10177000BD460AB0B0BDF0B58BB002AF78600C21A9
:101780007B1893221A707B1870225A701F23FB1843
:1017900000221A7010E01F203B181B787A68D218BC
:1017A0003B181B78023311780C22BA18D1543B181D
:1017B0001A783B1801321A701F23FB181B78042B70
:1017C000E9D90C257B19DA1D7B1907211800FFF7D1
:1017D00005FF1D26BC197A1979191823FB180093E7
:1017E000130009220C20FFF7F6FC03002370BB193D
:1017F0001B78002B08D1BB69182B05D11E23FB18C1
:101800007A1912781A7003E01E23FB1800221A704E
:101810001E23FB181B781800BD4609B0F0BD90B51B
:1018200087B002AF3B1D50221A703B1D00225A7038
:101830003B1D9A1C3B1D02211800FFF7CFFE0F2312
:10184000FC183A1D391D0823FB18009313000422CD
:101850000C20FFF7C0FC03002370C046BD4605B056
:1018600090BD000080B582B000AF0F4B9A690E4B5F
:1018700001210A439A610C4B9B69012213407B6052
:101880007B68094BDA69084B802149050A43DA6114
:10189000054BDA6980235B0513403B603B68C0461B
:1018A000BD4602B080BDC0460010024090B58BB06E
:1018B00000AF786014243B19180014231A0000218B
:1018C00001F02EFF7B681B681C4A934232D11C4BEF
:1018D0009A691B4B802149010A439A61184B9A6906
:1018E00080235B0113403B613B69154B5A69144BE4
:1018F000802189020A435A61114B5A6980239B0255
:101900001340FB60FB6821007B18E0221A607B1803
:1019100002225A607B1800229A607B180322DA6048
:101920007B1800221A617A189023DB051100180039
:1019300000F0C2F9C046BD460BB090BD003001407A
:101940000010024080B500AFFEE780B500AFFEE7B3
:1019500080B500AFC046BD4680BD80B500AFC04673
:10196000BD4680BD80B500AF00F0B2F8C046BD46B0
:1019700080BD000080B586B000AF7860144A154B7A
:10198000D31A7B617B693B61134B1B68002B02D12F
:10199000114B124A1A60104B1A687B68D3183A69C7
:1019A0009A4207D201F092FE03000C221A60012332
:1019B0005B4209E0084B1B68FB60074B1A687B68B9
:1019C000D218054B1A60FB681800BD4606B080BDF2
:1019D00000100020000400004001002058010020F9
:1019E00080B500AFC046BD4680BD00000D488546AD
:1019F000FFF7F6FF0C480D490D4A002302E0D458CA
:101A0000C4500433C4188C42F9D30A4A0A4C002348
:101A100001E013600432A242FBD301F05DFEFFF748
:101A20007DF9FEE700100020000000207800002073
:101A3000E04000087800002058010020FEE7000088
:101A400080B500AF074B1A68064B10210A431A6095
:101A5000032000F009F8FFF705FF00231800BD463A
:101A600080BDC0460020024090B583B000AF7860D2
:101A7000144B1C68144B1B781900FA239800FEF7CE
:101A80004DFB030019002000FEF748FB030018007F
:101A900000F005F9031E01D001230FE07B68032B42
:101AA0000BD8796801235B420022180000F0E2F8AD
:101AB000064B7A681A60002300E001231800BD4637
:101AC00003B090BD08000020100000200C00002092
:101AD00080B500AF054B1B781A00054B1B68D21868
:101AE000034B1A60C046BD4680BDC04610000020B2
:101AF0004401002080B500AF024B1B681800BD46B2
:101B000080BDC0464401002080B584B000AF78603D
:101B1000FFF7F0FF0300BB607B68FB60FB680133ED
:101B200005D00A4B1B781A00FB689B18FB60C04667
:101B3000FFF7E0FF0200BB68D31AFA689A42F7D8B1
:101B4000C046C046BD4604B080BDC046100000205F
:101B500090B583B000AF02003960FB1D1A70FB1D09
:101B60001B787F2B28D82F4AFB1D1B785BB29B0864
:101B7000C0339B009B58FA1D1278110003220A40C3
:101B8000D200FF2191400A00D2431A4011003B6865
:101B90009B01FF221A40FB1D1B7818000323034002
:101BA000DB009A401F48FB1D1B785BB29B080A4371
:101BB000C0339B001A5031E01B4AFB1D1B781900F3
:101BC0000F230B40083B9B0806339B00D3180433BC
:101BD0001B68FA1D1278110003220A40D200FF216F
:101BE00091400A00D2431A4011003B689B01FF223A
:101BF0001A40FB1D1B78180003230340DB009A40AA
:101C00000948FB1D1B781C000F232340083B9B0841
:101C10000A4306339B00C31804331A60C046BD460E
:101C200003B090BD00E100E000ED00E080B582B0BF
:101C300000AF78607B685A1E80235B049A4201D310
:101C4000012310E00A4B7A68013A5A6001235B4293
:101C500003211800FFF77CFF054B00229A60044B1C
:101C600007221A6000231800BD4602B080BDC0469E
:101C700010E000E080B584B000AFB9607A600F2159
:101C80007B18021C1A70BA687B181B785BB21100B3
:101C90001800FFF75DFFC046BD4604B080BD80B5AB
:101CA00082B000AF78607B681800FFF7BFFF0300C9
:101CB0001800BD4602B080BD80B586B000AF786028
:101CC000396000237B614FE13B681B6801217A6921
:101CD00091400A001340FB60FB68002B00D140E1FB
:101CE0003B685B6803221340012B05D03B685B68AF
:101CF00003221340022B30D17B689B683B617B69D8
:101D00005B0003229A401300DA433B6913403B61B6
:101D10003B68DA687B695B009A4013003A691343B9
:101D20003B617B683A699A607B685B683B61012232
:101D30007B699A401300DA433B6913403B613B687F
:101D40005B681B0901221A407B699A4013003A69BB
:101D500013433B617B683A695A603B685B680322C6
:101D60001340032B17D07B68DB683B617B695B000A
:101D700003229A401300DA433B6913403B613B68FE
:101D80009A687B695B009A4013003A6913433B6190
:101D90007B683A69DA603B685B6803221340022B78
:101DA00023D17B69DA087B6808329200D3583B6103
:101DB0007B69072213409B000F229A401300DA43ED
:101DC0003B6913403B613B681A697B6907210B4003
:101DD0009B009A4013003A6913433B617B69DA0820
:101DE0007B68083292003969D1507B681B683B617F
:101DF0007B695B0003229A401300DA433B6913407E
:101E00003B613B685B6803221A407B695B009A4038
:101E100013003A6913433B617B683A691A603B6877
:101E20005A68C0239B02134000D19AE0544B9A6930
:101E3000534B01210A439A61514B9B690122134084
:101E4000BB60BB684F4A7B699B0802339B009B5871
:101E50003B617B69032213409B000F229A401300D1
:101E6000DA433B6913403B617A689023DB059A4271
:101E700013D07B68444A93420DD07B68434A934217
:101E800007D07B68424A934201D1032306E0052331
:101E900004E0022302E0012300E000237A69032129
:101EA0000A40920093403A6913433B6135497B698C
:101EB0009B0802339B003A695A50364B9B683B6142
:101EC000FB68DA433B6913403B613B685A688023F7
:101ED0005B03134003D03A69FB6813433B612D4B0E
:101EE0003A699A602B4BDB683B61FB68DA433B69DC
:101EF00013403B613B685A6880239B03134003D027
:101F00003A69FB6813433B61224B3A69DA60214B23
:101F10005B683B61FB68DA433B6913403B613B68AC
:101F20005A6880239B02134003D03A69FB6813432D
:101F30003B61184B3A695A60164B1B683B61FB6862
:101F4000DA433B6913403B613B685A6880235B027C
:101F5000134003D03A69FB6813433B610D4B3A6968
:101F60001A607B6901337B613B681A687B69DA40E0
:101F7000131E00D0A8E6C046C046BD4606B080BDD0
:101F80000010024000000140000400480008004822
:101F9000000C00480004014080B584B000AF7860B8
:101FA0000A00BB1C1A807B681B69BA1C128813408C
:101FB00004D00F23FB1801221A7003E00F23FB1833
:101FC00000221A700F23FB181B781800BD4604B0BE
:101FD00080BD80B582B000AF786008001100BB1CE6
:101FE000021C1A807B1C0A1C1A707B1C1B78002B9D
:101FF00004D0BB1C1A887B689A6103E0BB1C1A885A
:102000007B689A62C046BD4602B080BD80B588B08C
:1020100000AF78607B68002B01D1012301E37B686E
:102020001B680122134000D18DE0C34B5B680C227A
:102030001340042B0ED0C04B5B680C221340082BBE
:1020400016D1BD4B5A6880235B021A4080235B0285
:102050009A420DD1B84B1A6880239B02134000D1DD
:1020600070E07B685B68002B00D06BE00123D8E256
:102070007B685B68012B07D1AF4B1A68AE4B8021A0
:1020800049020A431A602FE07B685B68002B0CD181
:10209000A94B1A68A84BA9490A401A60A64B1A68AE
:1020A000A54BA7490A401A601EE07B685B68052BB8
:1020B0000ED1A14B1A68A04B8021C9020A431A60B5
:1020C0009D4B1A689C4B802149020A431A600BE021
:1020D000994B1A68984B99490A401A60964B1A68AE
:1020E000954B97490A401A607B685B68002B14D0B7
:1020F000FFF700FD0300BB6108E0FFF7FBFC0200F7
:10210000BB69D31A642B01D903238AE28A4B1A686C
:1021100080239B021340F0D015E0FFF7EBFC030097
:10212000BB6108E0FFF7E6FC0200BB69D31A642B31
:1021300001D9032375E2804B1A6880239B02134068
:10214000F0D100E0C0467B681B680222134000D13A
:1021500069E0794B5B680C2213400BD0764B5B68CF
:102160000C221340082B1CD1734B5A6880235B024E
:10217000134016D1704B1B680222134005D07B68B8
:10218000DB68012B01D001234BE26B4B1B68F8226B
:10219000934319007B681B69DA00674B0A431A6096
:1021A00041E07B68DB68002B24D0634B1A68624BEC
:1021B00001210A431A60FFF79DFC0300BB6108E0A0
:1021C000FFF798FC0200BB69D31A022B01D9032345
:1021D00027E2594B1B6802221340F1D0564B1B6873
:1021E000F822934319007B681B69DA00524B0A43BB
:1021F0001A6018E0504B1A684F4B01218A431A604D
:10220000FFF778FC0300BB6108E0FFF773FC0200F6
:10221000BB69D31A022B01D9032302E2464B1B6888
:1022200002221340F1D17B681B680822134036D08C
:102230007B68DB69002B19D03F4B5A6A3E4B01216A
:102240000A435A62FFF756FC0300BB6108E0FFF740
:1022500051FC0200BB69D31A022B01D90323E0E130
:10226000354B5B6A02221340F1D018E0324B5A6AB8
:10227000314B01218A435A62FFF73CFC0300BB61EA
:1022800008E0FFF737FC0200BB69D31A022B01D923
:102290000323C6E1284B5B6A02221340F1D17B681D
:1022A0001B680422134000D1B4E01F203B18002219
:1022B0001A70214BDA6980235B05134010D11E4B45
:1022C000DA691D4B802149050A43DA611A4BDA6944
:1022D00080235B051340FB60FB683B1801221A70EA
:1022E000184B1A6880235B0013401AD1154B1A68EB
:1022F000144B802149000A431A60FFF7FBFB0300DF
:10230000BB6108E0FFF7F6FB0200BB69D31A642B40
:1023100001D9032385E10B4B1A6880235B0013402E
:10232000F0D07B689B68012B0ED1034B1A6A024BDD
:1023300001210A431A6235E000100240FFFFFEFF50
:10234000FFFFFBFF007000407B689B68002B0CD1F7
:10235000B64B1A6AB54B01218A431A62B34B1A6A0B
:10236000B24B04218A431A621CE07B689B68052BF0
:102370000CD1AE4B1A6AAD4B04210A431A62AB4B27
:102380001A6AAA4B01210A431A620BE0A74B1A6A88
:10239000A64B01218A431A62A44B1A6AA34B04215B
:1023A0008A431A627B689B68002B14D0FFF7A2FB5C
:1023B0000300BB6109E0FFF79DFB0200BB69D31A74
:1023C0009B4A934201D903232BE1984B1B6A0222BB
:1023D0001340F0D013E0FFF78DFB0300BB6109E071
:1023E000FFF788FB0200BB69D31A914A934201D9D7
:1023F000032316E18D4B1B6A02221340F0D11F23E9
:10240000FB181B78012B05D1884BDA69874B89496A
:102410000A40DA617B681B681022134063D07B6836
:102420005B69012B2AD1814B5A6B804B04210A43F3
:102430005A637E4B5A6B7D4B01210A435A63FFF767
:1024400059FB0300BB6108E0FFF754FB0200BB69C6
:10245000D31A022B01D90323E3E0744B5B6B0222F6
:102460001340F1D0714B5B6BF822934319007B68EA
:102470009B69DA006D4B0A435A6334E07B685B6901
:10248000053311D1694B5A6B684B04218A435A6357
:10249000664B5B6BF822934319007B689B69DA00FB
:1024A000624B0A435A631EE0604B5A6B5F4B042138
:1024B0000A435A635D4B5A6B5C4B01218A435A6352
:1024C000FFF718FB0300BB6108E0FFF713FB0200F6
:1024D000BB69D31A022B01D90323A2E0534B5B6BD8
:1024E00002221340F1D17B681B6A002B00D197E0D8
:1024F0004E4B5B680C221340082B00D16BE07B68CD
:102500001B6A022B4CD1494B1A68484B4A490A4076
:102510001A60FFF7EFFA0300BB6108E0FFF7EAFA81
:102520000200BB69D31A022B01D9032379E03F4B88
:102530001A6880239B041340F0D13C4BDB6A0F22C6
:10254000934319007B68DA6A384B0A43DA62374BE7
:102550005B683A4A134019007B689A6A7B685B6A39
:102560001A43324B0A435A60304B1A682F4B802172
:1025700049040A431A60FFF7BDFA0300BB6108E093
:10258000FFF7B8FA0200BB69D31A022B01D9032363
:1025900047E0264B1A6880239B041340F0D03FE0AD
:1025A000224B1A68214B24490A401A60FFF7A2FA0D
:1025B0000300BB6108E0FFF79DFA0200BB69D31A74
:1025C000022B01D903232CE0184B1A6880239B04AB
:1025D0001340F0D124E07B681B6A012B01D1012359
:1025E0001FE0124B5B687B61104BDB6A3B617A69D1
:1025F00080235B021A407B685B6A9A420ED13B697A
:102600000F221A407B68DB6A9A4207D17A69F0236D
:102610009B031A407B689B6A9A4201D0012300E029
:1026200000231800BD4608B080BDC046001002401F
:1026300088130000FFFFFFEFFFFFFFFEFFFFC2FF59
:1026400080B584B000AF786039607B68002B01D121
:102650000123B3E05B4B1B68012213403A689A42A6
:1026600011D9584B1B68012293431900554B3A6806
:102670000A431A60534B1B68012213403A689A427E
:1026800001D001239AE07B681B680222134015D019
:102690007B681B680422134006D04B4B5A684A4B98
:1026A000E021C9000A435A60474B5B68F02293431C
:1026B00019007B689A68444B0A435A607B681B6820
:1026C0000122134040D07B685B68012B07D13E4B51
:1026D0001A6880239B02134014D101236EE07B68AB
:1026E0005B68022B07D1384B1A6880239B04134088
:1026F00008D1012362E0344B1B680222134001D150
:1027000001235BE0304B5B680322934319007B6835
:102710005A682D4B0A435A60FFF7ECF90300FB603F
:1027200009E0FFF7E7F90200FB68D31A274A934252
:1027300001D9032342E0244B5B680C221A407B68DA
:102740005B689B009A42ECD11E4B1B680122134030
:102750003A689A4211D21B4B1B680122934319001D
:10276000184B3A680A431A60164B1B680122134043
:102770003A689A4201D0012320E07B681B6804225A
:10278000134009D0104B5B68114A134019007B6855
:10279000DA680D4B0A435A6000F020F801000A4B3A
:1027A0005B681B090F2213400A4AD35C0A00DA4017
:1027B000094B1A600320FFF757F900231800BD46A4
:1027C00004B080BD002002400010024088130000C9
:1027D000FFF8FFFF744000080800002080B586B0B5
:1027E00000AF0023FB600023BB6000237B6100235C
:1027F0007B6000233B61204B5B68FB60FB680C2225
:102800001340042B02D0082B03D02CE01B4B3B6160
:102810002CE0FB689B0C0F221340194AD35C7B60B1
:10282000154BDB6A0F221340164AD35CBB60FA6873
:1028300080235B02134009D0B9681048FDF76EFC95
:1028400003001A007B6853437B6109E079680A0042
:102850005201521A93019B1ADB005B181B027B6129
:102860007B693B6102E0084B3B61C0463B69180055
:10287000BD4606B080BDC04600100240002D3101AB
:10288000844000089440000800127A0080B584B0AB
:1028900000AF78607B68002B01D10123A8E07B6842
:1028A0005B6A002B09D17B685A6882235B009A42DD
:1028B00009D07B680022DA6105E07B6800221A619A
:1028C0007B6800225A617B6800229A627B685D22E5
:1028D0009B5CDBB2002B07D17B685C220021995402
:1028E0007B681800FEF7E2FF7B685D2202219954A5
:1028F0007B681B681A687B681B6840218A431A60E2
:102900007B68DA68E023DB009A4202D90023FB608F
:1029100002E080235B01FB607B68DA68F0231B0127
:102920009A4208D07B68DA68E023DB009A4202D042
:102930007B6800229A627B685A6882235B001A4097
:102940007B68996884231B020B401A437B681B69D0
:1029500002210B401A437B685B6901210B401A433B
:102960007B68996980239B000B401A437B68DB6975
:1029700038210B401A437B681B6A80210B401A43A5
:1029800011007B689A6A80239B011A407B681B6850
:102990000A431A607B689B691B0C04221A407B68FF
:1029A0005B6A10210B401A437B685B6B08210B406C
:1029B0001A437B68D968F0231B010B401A431100AE
:1029C000FA6880235B011A407B681B680A435A60DF
:1029D0007B681B68DA697B681B6807490A40DA6113
:1029E0007B6800221A667B685D22012199540023CE
:1029F0001800BD4604B080BDFFF7FFFF80B588B06A
:102A000000AFF860B9603B60BB1D1A801F23FB1844
:102A100000221A70FB685C229B5C012B01D102230F
:102A200047E1FB685C2201219954FFF763F803003A
:102A3000BB611623FB18BA1D12881A80FB685D2241
:102A40009B5CDBB2012B04D01F23FB1802221A70FF
:102A500028E1BB68002B03D0BB1D1B88002B04D1D1
:102A60001F23FB1801221A701CE1FB685D22032161
:102A70009954FB6800221A66FB68BA689A63FB687F
:102A8000BA1D12889A87FB68BA1D1288DA87FB681C
:102A900000221A64FB68442200219952FB684622F6
:102AA00000219952FB6800221A65FB680022DA6453
:102AB000FB689A6880231B029A4210D1FB681B684E
:102AC0001A68FB681B6840218A431A60FB681B6810
:102AD0001A68FB681B688021C9010A431A60FB68F9
:102AE0001B681B6840221340402B07D0FB681B6803
:102AF0001A68FB681B6840210A431A60FB68DA68A1
:102B0000E023DB009A4252D9FB685B68002B04D0BB
:102B10001623FB181B88012B43D1FB689B6B1A887B
:102B2000FB681B68DA60FB689B6B9A1CFB689A6306
:102B3000FB68DB8F9BB2013B9AB2FB68DA8730E01F
:102B4000FB681B689B6802221340022B12D1FB68B2
:102B50009B6B1A88FB681B68DA60FB689B6B9A1C8E
:102B6000FB689A63FB68DB8F9BB2013B9AB2FB6800
:102B7000DA8716E0FEF7BEFF0200BB69D31A3A6897
:102B80009A4202D83B68013302D13B68002B08D13E
:102B90001F23FB1803221A70FB685D220121995440
:102BA00080E0FB68DB8F9BB2002BC9D153E0FB6850
:102BB0005B68002B04D01623FB181B88012B45D122
:102BC000FB689A6BFB681B680C3312781A70FB6801
:102BD0009B6B5A1CFB689A63FB68DB8F9BB2013BC3
:102BE0009AB2FB68DA8731E0FB681B689B680222B7
:102BF0001340022B13D1FB689A6BFB681B680C33E4
:102C000012781A70FB689B6B5A1CFB689A63FB680E
:102C1000DB8F9BB2013B9AB2FB68DA8716E0FEF7C6
:102C200069FF0200BB69D31A3A689A4202D83B682E
:102C3000013302D13B68002B08D11F23FB1803226C
:102C40001A70FB685D22012199542BE0FB68DB8F31
:102C50009BB2002BC8D1BA693968FB68180000F034
:102C6000EFFC031E02D0FB6820221A66FB689B68FB
:102C7000002B0AD100233B61FB681B68DB683B61CA
:102C8000FB681B689B683B613B69FB681B6E002B04
:102C900004D01F23FB1801221A7003E0FB685D2299
:102CA00001219954FB685C22002199541F23FB18D1
:102CB0001B781800BD4608B080BD000090B589B0F3
:102CC00002AFF860B9603B60BB1D1A8017217B180A
:102CD00000221A70FB685D229B5CDBB2012B03D0E3
:102CE0007B1802221A702BE1FB685A6882235B0072
:102CF0009A4213D1FB689B68002B0FD1FB685D22C1
:102D000004219954BB1D1C88BA68B968F8683B68EF
:102D10000093230000F024F9030018E1FB685C2213
:102D20009B5C012B01D1022311E1FB685C22012194
:102D30009954FEF7DFFE03003B61BB68002B03D014
:102D4000BB1D1B88002B04D11723FB1801221A700E
:102D5000F6E0FB685D2204219954FB6800221A66A4
:102D6000FB68BA681A64FB68BA1D442112885A527B
:102D7000FB68BA1D462112885A52FB6800229A63EA
:102D8000FB6800229A87FB680022DA87FB68002232
:102D9000DA64FB6800221A65FB68DA68E023DB006E
:102DA0009A4208D9FB681B685A68FB681B686A4925
:102DB0000A405A6008E0FB681B685A68FB681B6899
:102DC000802149010A435A60FB689A6880231B02EC
:102DD0009A420FD1FB681B681A68FB681B68402188
:102DE0008A431A60FB681B681A68FB681B685B49AA
:102DF0000A401A60FB681B681B6840221340402B86
:102E000007D0FB681B681A68FB681B6840210A43EF
:102E10001A60FB68DA68E023DB009A4200D971E0AF
:102E200035E0FB681B689B6801221340012B17D11A
:102E3000FB681B680C331A00FB681B6C1278D2B25B
:102E40001A70FB681B6C5A1CFB681A64FB684622EC
:102E50009B5A9BB2013B99B2FB684622995216E0FD
:102E6000FEF748FE02003B69D31A3A689A4202D83C
:102E70003B68013302D13B68002B08D11723FB18B4
:102E800003221A70FB685D220121995458E0FB6807
:102E900046229B5A9BB2002BC3D139E0FB681B68CA
:102EA0009B6801221340012B15D1FB681B68DA686F
:102EB000FB681B6C92B21A80FB681B6C9A1CFB6847
:102EC0001A64FB6846229B5A9BB2013B99B2FB688D
:102ED0004622995216E0FEF70DFE02003B69D31A16
:102EE0003A689A4202D83B68013302D13B68002B12
:102EF00008D11723FB1803221A70FB685D220121F9
:102F000099541DE0FB6846229B5A9BB2002BC5D109
:102F10003A693968FB68180000F034FB031E02D0E0
:102F2000FB6820221A66FB681B6E002B04D0172357
:102F3000FB1801221A7003E0FB685D2201219954FD
:102F4000FB685C22002199541723FB181B7818009A
:102F5000BD4607B090BDC046FFEFFFFFFFBFFFFFBC
:102F600080B58AB000AFF860B9607A601A00BB1C07
:102F70001A8001237B622323FB1800221A70FB684E
:102F80005C229B5C012B01D10223C4E1FB685C2223
:102F900001219954FEF7AEFD0300FB611B203B1895
:102FA000FA685D21525C1A70FB685B687B611223D2
:102FB000FB18BA1C12881A803B181B78012B11D001
:102FC0007A6982235B009A4207D1FB689B68002BD9
:102FD00003D13B181B78042B04D02323FB180222B7
:102FE0001A7091E1BB68002B06D07B68002B03D0E0
:102FF000BB1C1B88002B04D12323FB1801221A7051
:1030000082E1FB685D229B5CDBB2042B03D0FB6892
:103010005D2205219954FB6800221A66FB687A68D4
:103020001A64FB68BA1C462112885A52FB68BA1C03
:10303000442112885A52FB68BA689A63FB68BA1C2A
:103040001288DA87FB68BA1C12889A87FB6800220C
:10305000DA64FB6800221A65FB68DA68E023DB00AB
:103060009A4208D9FB681B685A68FB681B68AC4920
:103070000A405A6008E0FB681B685A68FB681B68D6
:10308000802149010A435A60FB681B681B68402283
:103090001340402B07D0FB681B681A68FB681B684D
:1030A00040210A431A60FB68DA68E023DB009A4299
:1030B00000D883E0FB685B68002B05D01223FB1867
:1030C0001B88012B00D06DE0FB689B6B1A88FB68A6
:1030D0001B68DA60FB689B6B9A1CFB689A63FB6851
:1030E000DB8F9BB2013B9AB2FB68DA875AE0FB6840
:1030F0001B689B6802221340022B1BD1FB68DB8FED
:103100009BB2002B16D07B6A012B13D1FB689B6B03
:103110001A88FB681B68DA60FB689B6B9A1CFB686B
:103120009A63FB68DB8F9BB2013B9AB2FB68DA873C
:1031300000237B62FB681B689B6801221340012B04
:103140001CD1FB6846229B5A9BB2002B16D0FB6811
:103150001B68DA68FB681B6C92B21A80FB681B6CF8
:103160009A1CFB681A64FB6846229B5A9BB2013B7F
:1031700099B2FB684622995201237B62FEF7BAFCA2
:103180000200FB69D31A3A6B9A420BD83B6B0133AE
:1031900008D02323FB1803221A70FB685D2201214B
:1031A0009954B1E0FB68DB8F9BB2002B9FD1FB6889
:1031B00046229B5A9BB2002B99D189E0FB685B6841
:1031C000002B05D01223FB181B88012B00D074E0C4
:1031D000FB689A6BFB681B680C3312781A70FB68EB
:1031E0009B6B5A1CFB689A63FB68DB8F9BB2013BAD
:1031F0009AB2FB68DA8760E0FB681B689B68022272
:103200001340022B1CD1FB68DB8F9BB2002B17D025
:103210007B6A012B14D1FB689A6BFB681B680C332B
:1032200012781A70FB689B6B5A1CFB689A63FB68E8
:10323000DB8F9BB2013B9AB2FB68DA8700237B628B
:10324000FB681B689B6801221340012B1ED1FB68A1
:1032500046229B5A9BB2002B18D0FB681B680C338C
:103260001A00FB681B6C1278D2B21A70FB681B6CD8
:103270005A1CFB681A64FB6846229B5A9BB2013BAE
:1032800099B2FB684622995201237B62FEF732FC19
:103290000200FB69D31A3A6B9A4202D83B6B0133A6
:1032A00002D13B6B002B08D12323FB1803221A7099
:1032B000FB685D220121995426E0FB68DB8F9BB2FD
:1032C000002B99D1FB6846229B5A9BB2002B93D1CD
:1032D000FA69396BFB68180000F0B2F9031E06D0DA
:1032E0002323FB1801221A70FB6820221A66FB6850
:1032F0001B6E002B04D02323FB1801221A7003E05D
:10330000FB685D2201219954FB685C2200219954DD
:103310002323FB181B781800BD460AB080BDC046A9
:10332000FFEFFFFF80B588B000AFF860B9603B6089
:10333000FB1D1A70FEF7DEFB0200BB6A9B1A3A689F
:10334000D318FB61FEF7D6FB0300BB613A4B1B6849
:103350005B011B0DFA6953437B6158E03B68013305
:1033600055D0FEF7C7FB0200BB69D31AFA699A422F
:1033700002D9FB69002B42D1FB681B685A68FB68C5
:103380001B68E0218A435A60FB685A6882235B000D
:103390009A4213D1FB689A6880231B029A4205D097
:1033A000FB689A688023DB009A4207D1FB681B68A0
:1033B0001A68FB681B6840218A431A60FB689A6A96
:1033C00080239B019A4210D1FB681B681A68FB6836
:1033D0001B681A490A401A60FB681B681A68FB6878
:1033E0001B68802189010A431A60FB685D22012164
:1033F0009954FB685C2200219954032317E07B69F0
:10340000002B01D10023FB617B69013B7B61FB68E1
:103410001B689B68BA681340BA68D31A5A42534172
:10342000DBB21A00FB1D1B789A4297D100231800CB
:10343000BD4608B080BDC04608000020FFDFFFFF8A
:1034400080B58AB000AFF860B9607A603B6017233E
:10345000FB1800221A70FEF74DFB02003B6B9B1A13
:103460003A68D3187B62FEF745FB03003B62FB68BA
:103470001B680C33FB61414B1A6813009B009B18BF
:10348000DA00D31A1B0D7A6A5343BB6168E0BA684D
:10349000C023DB009A420AD17B68002B07D1FB696D
:1034A0001B78DAB217217B181A707B181B783B68DF
:1034B000013355D0FEF71EFB02003B6AD31A7A6A2D
:1034C0009A4202D97B6A002B42D1FB681B685A687A
:1034D000FB681B68E0218A435A60FB685A688223B4
:1034E0005B009A4213D1FB689A6880231B029A42C0
:1034F00005D0FB689A688023DB009A4207D1FB68FD
:103500001B681A68FB681B6840218A431A60FB68C5
:103510009A6A80239B019A4210D1FB681B681A6843
:10352000FB681B6816490A401A60FB681B681A682A
:10353000FB681B68802189010A431A60FB685D22D1
:1035400001219954FB685C2200219954032310E067
:10355000BB69002B01D100237B62BB69013BBB61CE
:10356000FB681B689B68BA6813407A689A428ED1E0
:1035700000231800BD460AB080BDC04608000020E8
:10358000FFDFFFFF80B586B002AFF860B9607A60F8
:10359000FB685A6882235B009A4213D1FB689A68E1
:1035A00080231B029A4205D0FB689A688023DB00C7
:1035B0009A4207D1FB681B681A68FB681B684021A8
:1035C0008A431A60BA68F8687B6800931300002287
:1035D0008021FFF7A7FE031E07D0FB681B6E202289
:1035E0001A43FB681A66032326E0FB685A688223A5
:1035F0005B009A421FD1FB689A6880231B029A42A3
:1036000005D0FB689A688023DB009A4213D1BA6820
:10361000C023D900F8687B68009313000022FFF7ED
:103620000FFF031E07D0FB681B6E20221A43FB68A6
:103630001A66032300E000231800BD4604B080BDD5
:1036400080B586B002AFF860B9607A60BA68C0230E
:103650005901F8687B68009313000022FFF7F0FE21
:10366000031E07D0FB681B6E20221A43FB681A66F4
:10367000032327E0BA68F8687B68009313000022F0
:103680008021FFF74FFE031E07D0FB681B6E202230
:103690001A43FB681A66032314E0BA68C023D900F2
:1036A000F8687B68009313000022FFF7C9FE031E31
:1036B00007D0FB681B6E20221A43FB681A6603239F
:1036C00000E000231800BD4604B080BD014B18681F
:1036D0007047C0461400002070B500260C4D0D4CFC
:1036E000641BA410A64209D1002600F08BFC0A4DF1
:1036F0000A4C641BA410A64205D170BDB300EB5860
:1037000098470136EEE7B300EB5898470136F2E7E9
:10371000D8400008D8400008D8400008DC40000825
:1037200003008218934200D1704719700133F9E702
:103730000EB400B50B499CB01DAB029006900791EA
:1037400004910948094904CB0591006802A9019335
:1037500000F070F80023029A13701CB008BC03B08C
:103760001847C046FFFFFF7F140000200802FFFF3C
:10377000F0B58E6885B007000C00039201939E425D
:103780003CD890238A89DB001A4234D00969236827
:1037900060695B1A029303234343DD0FED18019B1D
:1037A000029801331B186D10AB4200D91D00530560
:1037B00032D52900380000F053FB061E09D10C2336
:1037C0003B6040230120A28940421343A38105B0FE
:1037D000F0BD029A216900F0BAFAA389144A1A408E
:1037E00080231343A381029B2661F618266065613E
:1037F000019EED1AA560019B9E4200D9019E3200F8
:103800000399206800F0ACFAA36800209B1BA3601A
:1038100023689E192660DAE72A00380000F096FB3C
:10382000061EE0D13800216900F0AEFAC7E7C046B5
:103830007FFBFFFFF0B5A1B003901D008B890F0047
:1038400016001B0611D50B69002B0ED1402100F08C
:1038500007FB38603861002805D10C23039A013832
:10386000136021B0F0BD40237B61002308AC63618D
:10387000203363761033A376079535002B78002B21
:1038800001D0252B47D1AB1B0593B5420CD032009C
:1038900039000398FFF76CFF431C00D1AEE062696A
:1038A000059B9446634463612B78002B00D1A5E00F
:1038B000012200235242626004A9543252186E1C45
:1038C0002360E360A3601370A36505223178544838
:1038D00000F032FA751C00281FD12268D30604D5E7
:1038E000532304A95B1820211970130704D553230F
:1038F00004A95B182B21197033782A2B16D03500B8
:1039000000210A20E3682A786E1C303A092A4ED931
:10391000002911D117E00135B0E7414B2268C01AE8
:103920000123834013432E002360CEE7079B191D1C
:103930001B680791002B01DB0B9304E05B42E36003
:103940000223134323602B782E2B0AD16B782A2B6A
:1039500035D1079B02351A1D1B680792002B2BDB04
:103960000993304E03223000297800F0E5F9002851
:1039700006D04023801B8340226801351343236017
:103980002978062228486E1C217600F0D5F90028F7
:103990003CD0264B002B25D10722079B07339343AE
:1039A000083307936369049A9B18636165E743438F
:1039B000350001219B18A6E701235B42D0E70023D5
:1039C0000A201A000135636029786E1C30390929F4
:1039D00003D9002BC5D00992C3E742433500012328
:1039E0005218F1E707AB00933A002100104B0398FF
:1039F00000E000BF0490049B0133D3D1BB890D9834
:103A00005B0600D42DE7012040422AE707AB009374
:103A10003A002100064B039800F07CF8EAE7C04624
:103A2000A4400008AA400008AE40000800000000C2
:103A300071370008F7B5150001938A680B690C000F
:103A40000090934200DA130022002B604332127878
:103A5000002A01D001332B6023689B0602D52B6816
:103A600002332B602268062317001F401A4227D01A
:103A7000230043331B785A1E93412268920630D4A8
:103A8000220001990098089E4332B047431C25D07C
:103A9000062320682A68E16800250340042B03D12F
:103AA0008D1AEB43DB171D40A3682269934201DDA9
:103AB0009B1AED180027BD4220D1002010E00137ED
:103AC000E3682A689B1ABB42D2DD220001230199D8
:103AD0000098089E1932B047431CF0D101204042A3
:103AE000FEBD3020E1184331087021005A1C4531D9
:103AF0000978A218433202331170C1E72200012372
:103B000001990098089E1A32B047431CE6D001374D
:103B1000D1E70000F0B58BB006920A00433207935C
:103B2000059004920A7E0C00109B782A07D8622A1E
:103B300009D8002A00D1C1E0582A00D18CE0260023
:103B40004236327022E0100063381528F7D8FCF7AF
:103B5000DBFA16001F00F6FFF6FFF6FFF6FF1F0068
:103B6000F6FFF6FFF6FFF6FFA80036009A00F6FF14
:103B7000F6FFB900F6FF3600F6FFF6FF9E002600BE
:103B80001A684236111D1960136833700123A7E0CB
:103B9000086819680A1D05060BD50D681A60002D06
:103BA00003DA2D23049A6D421370614B0A270393A5
:103BB0001BE00D681A604106F1D52DB2EFE70D68E4
:103BC0001968081D18602E0601D50D6803E06D0602
:103BD000FBD50D68ADB2564B082703936F2A00D072
:103BE00002372300002243331A706368A360002B5E
:103BF00003DB0422216891432160002D02D1049E41
:103C0000002B0CD0049E28003900FCF70DFB039B11
:103C1000013E5B5C33702B0005009F42F3D9082FF7
:103C200009D12368DB0706D563682269934202DC69
:103C30003023013E3370049B9B1B2361079B2100B3
:103C400000930598069B09AAFFF7F4FE431C4CD18C
:103C5000012040420BB0F0BD45310A70344A039256
:103C60001A68216820CA1A60080616D5CB0702D543
:103C70002023194321601027002DB2D12023226870
:103C80009A432260ADE7202209680A43226022009D
:103C9000782145321170274AE1E74806E6D5ADB2F2
:103CA000E4E71A680D68101D4969186013682E064C
:103CB00001D5196002E06D06FBD519800023049E32
:103CC0002361BBE71A68111D1960166800213000D6
:103CD000626800F031F8002801D0801B60606368E2
:103CE00023610023049A1370A8E723693200069920
:103CF0000598079DA847431CAAD023689B0715D4A5
:103D0000099BE0689842A5DA1800A3E72200012386
:103D100006990598079E1932B047431C98D0013583
:103D2000E368099A9B1AAB42F0DCE9E70025F7E764
:103D3000B5400008C6400008C9B28218904201D1BF
:103D40000020704703788B42FBD00130F6E7002358
:103D500010B59A4200D110BDCC5CC4540133F8E7D1
:103D600010B5884202D98B18984203D3002307E08C
:103D70008B5C8354013AFBD210BDCC5CC45401333C
:103D80009A42FAD1F8E7000070B50500002910D07A
:103D90000C1F2368002B00DAE418280000F018F943
:103DA0001D4A1368002B05D163601460280000F0E1
:103DB00017F970BDA34208D9216860188342F3D176
:103DC00018685B6841182160EEE71A005B68002BF9
:103DD00001D0A342F9D911685018A0420BD1206834
:103DE0000918501811608342E0D118685B684118C7
:103DF00011605360DAE7A04202D90C232B60D5E7AB
:103E000021686018834203D118685B6841182160FB
:103E100063605460CAE7C0464801002070B50F4E89
:103E20000D0031680400002902D100F0BFF83060B5
:103E30002900200000F0BAF8431C0AD00323C51C57
:103E40009D43A84207D0291A200000F0AFF8431C78
:103E500001D101256D42280070BDC0464C010020F3
:103E6000F7B50322CB1C9343083306001F000C2B2D
:103E700032D20C27B94231D8300000F0A9F8324DC7
:103E80002B681C00002C2ED139003000FFF7C6FF34
:103E90000400431C1ED12C682500002D4AD1236844
:103EA0002900E3183000019300F080F8019B834261
:103EB00043D123680337FF1A03239F4308370C2F8E
:103EC00000D20C2739003000FFF7A8FF431C34D084
:103ED0002368DF19276013E0002BCBDA0C230025C1
:103EE00033602800FEBD2268D11B20D40B2917D9CE
:103EF000E2192760A34211D12A6063681160536000
:103F00003000250000F06CF807220B35231D954387
:103F1000EA1A9D42E5D05B1BA350E2E75A60ECE74A
:103F20006268A34201D12A60EAE75A60E8E7230009
:103F30006468A7E72C006D68AFE70C23300033609E
:103F400000F04EF8CDE7C04648010020F7B5070065
:103F50000E001400002905D11100FFF781FF0500B4
:103F60002800FEBD002A03D1FFF70EFF2500F7E76A
:103F700000F03EF80190844203D835004308A34284
:103F8000EED321003800FFF76BFF051EE8D0019B40
:103F900022009C4200D91A0031002800FFF7D7FE0A
:103FA00031003800FFF7F0FEDAE70000002370B5BB
:103FB000064D040008002B60FDF7DCFC431C03D118
:103FC0002B68002B00D0236070BDC046500100203C
:103FD00010B5024800F014F810BDC046540100208E
:103FE00010B5024800F00DF810BDC0465401002085
:103FF0000B1F1B68181F002B01DA0B58C0187047E5
:1040000070477047F8B5C046F8BC08BC9E4670477C
:0C401000F8B5C046F8BC08BC9E467047DE
:10401C004B524544692059554B4C45004B52454435
:10402C0069203A202564200059554B4C454D4500DC
:10403C0054414D414D4C414E444900004C55544661
:10404C00454E00004B415254204F4B5554554E0099
:10405C0048415441204F4C55535455004B52454404
:10406C0069203A20256400000000000000000000D8
:10407C0001020304060708090203040506070809E0
:10408C000A0B0C0D0E0F1010010203040506070895
:10409C00090A0B0C0D0E0F10232D302B2000686C11
:1040AC004C0065666745464700303132333435364F
:1040BC003738394142434445460030313233343588
:0C40CC00363738396162636465660000B5
:0440D800E9000008F3
:0440DC00C100000817
:1040E000FFFFFFFFFFFF000000127A000400000046
:1040F0000100000018000020000000000000000087
:1041000000000000000000000000000000000000AF
:10411000000000000000000000000000000000009F
:10412000000000000000000000000000000000008F
:10413000000000000000000000000000000000007F
:10414000000000000000000000000000000000006F
:08415000000000000000000067
:04000005080019EDE9
:00000001FF
